:100000000C942A000C943F000C943F000C943F0089
:100010000C943F000C943F000C943F000C943F0064
:100020000C943F000C943F000C943F000C943F0054
:100030000C943F000C943F000C943F000C943F0044
:100040000C943F000C943F000C943F000C943F0034
:100050000C943F0011241FBECFE5D4E0DEBFCDBF1E
:1000600010E0A0E6B0E0EAE6F8E002C005900D92EC
:10007000A636B107D9F70E94A3010C9433040C945F
:100080000000882314F4AA9A01C0AA9886FF02C02F
:10009000AB9A01C0AB9885FF02C0AC9A01C0AC9886
:1000A00084FF02C0AD9A01C0AD98AF98AE9AE3EF5D
:1000B000F1E03197F1F700C00000AE98E3EFF1E016
:1000C0003197F1F700C0000083FF02C0AA9A01C077
:1000D000AA9882FF02C0AB9A01C0AB9881FF02C010
:1000E000AC9A01C0AC9880FF02C0AD9A01C0AD9837
:1000F000AF98AE9A83EF91E00197F1F700C000004E
:10010000AE98E3EFF1E03197F1F700C000000895F9
:10011000882314F4AA9A01C0AA9886FF02C0AB9A59
:1001200001C0AB9885FF02C0AC9A01C0AC9884FFB7
:1001300002C0AD9A01C0AD9895B3906C95BBE3EF4A
:10014000F1E03197F1F700C00000AE98E3EFF1E085
:100150003197F1F700C0000083FF02C0AA9A01C0E6
:10016000AA9882FF02C0AB9A01C0AB9881FF02C07F
:10017000AC9A01C0AC9880FF02C0AD9A01C0AD98A6
:1001800085B3806C85BB83EF91E00197F1F700C0E8
:100190000000AE98E3EFF1E03197F1F700C0000006
:1001A000089581E00E94410080E80E944100089586
:1001B00084B3806C84BB84B38C6384BB83EF91E095
:1001C0000197F1F700C0000081E00E94410082E049
:1001D0000E94410088E20E94410086E00E944100A6
:1001E0008CE00E94410080E80E9441000895CF9376
:1001F000DF93EC018881882361F021960E948800BA
:1002000083EF91E00197F1F700C000008991882306
:10021000A9F7DF91CF9108950F931F93CF93DF93A9
:100220008C016130710591F06230710524F4611523
:10023000710541F016C06230710561F063307105DF
:1002400081F40CC080E80E9441000BC080EC0E9449
:10025000410007C084E90E94410003C084ED0E9470
:100260004100101611064CF4C0E0D0E084E10E9479
:1002700041002196C017D107CCF3DF91CF911F9198
:100280000F9108958F929F92AF92BF92CF92DF927B
:10029000EF92FF920F931F93CF93DF936B01EA01CD
:1002A0004901BC0180E090E00E94FD02F62EE72E9D
:1002B000B82EA92ECC19DD09BE0180E090E00E9485
:1002C000FD029B01AC016F2D7E2D8B2D9A2D0E947E
:1002D0006902E62EF72ED82EC92E08191909B80181
:1002E00080E090E00E94FD022E2D3F2D4D2D5C2DD3
:1002F0000E948B030E94D102862F972FDF91CF910E
:100300001F910F91FF90EF90DF90CF90BF90AF9033
:100310009F908F90089583B7896683BF08958CBF9F
:10032000089580E487B987E886B9089597B1877002
:10033000987F982B97B9369A3699FECF24B135B16C
:10034000822F932F08952F923F924F925F926F9238
:100350007F928F929F92AF92BF92CF92DF92EF9255
:10036000FF920F931F93DF93CF9300D000D0CDB7B0
:10037000DEB780E884BF84BF0E9491010E94D8004C
:1003800083ED90E30197F1F700C000004424552469
:10039000222433247E010894E11CF11C0F2EF0E688
:1003A0008F2EF0E09F2EF02D80E00E9496016C01D0
:1003B00060E070E04FEF53E020E030E00FEF10E03E
:1003C0000E9442013C0181E00E9496015C0160E0D4
:1003D00070E04FEF53E020E030E00E9442018C01DA
:1003E000C214D30499F10E94D100C601B7014AE0BA
:1003F00050E00E94EE03C7010E94F700C4010E9472
:10040000F700C501B7014AE050E00E94EE03C701C2
:100410000E94F70080E090E061E070E00E940C0133
:10042000C301B7014AE050E00E94EE03C7010E94F9
:10043000F700C4010E94F700C801B7014AE050E08C
:100440000E94EE03C7010E94F7001601A414B50430
:1004500099F10E94D100C601B7014AE050E00E9424
:10046000EE03C7010E94F700C4010E94F700C50116
:10047000B7014AE050E00E94EE03C7010E94F70076
:1004800080E090E061E070E00E940C01C301B701E0
:100490004AE050E00E94EE03C7010E94F700C40149
:1004A0000E94F700C801B7014AE050E00E94EE0345
:1004B000C7010E94F700250187EA91E60197F1F74D
:1004C00000C0000083ED90E30197F1F700C0000049
:1004D0006BCF0CD0E6C0DED040F0D5D030F021F4A8
:1004E0005F3F19F0C7C0511110C1CAC0EBD098F3DB
:1004F0009923C9F35523B1F3951B550BBB27AA27A5
:1005000062177307840738F09F5F5F4F220F331F16
:10051000441FAA1FA9F333D00E2E3AF0E0E830D0E2
:1005200091505040E695001CCAF729D0FE2F27D0E5
:10053000660F771F881FBB1F261737074807AB07B3
:10054000B0E809F0BB0B802DBF01FF2793585F4F28
:100550002AF09E3F510568F08DC0D7C05F3FECF395
:10056000983EDCF3869577956795B795F7959F5FED
:10057000C9F7880F911D9695879597F90895E1E041
:10058000660F771F881FBB1F621773078407BA07A0
:1005900020F0621B730B840BBA0BEE1F88F7E095FB
:1005A000089598D088F09F5790F0B92F9927B751A8
:1005B000A0F0D1F0660F771F881F991F1AF0BA9527
:1005C000C9F712C0B13081F09FD0B1E008959CC04E
:1005D000672F782F8827B85F39F0B93FCCF386951D
:1005E00077956795B395D9F73EF49095809570957A
:1005F00061957F4F8F4F9F4F0895E89409C097FBF7
:100600003EF490958095709561957F4F8F4F9F4FE9
:100610009923A9F0F92F96E9BB279395F69587952D
:1006200077956795B795F111F8CFFAF4BB0F11F4F0
:1006300060FF1BC06F5F7F4F8F4F9F4F16C0882397
:1006400011F096E911C0772321F09EE8872F762FCD
:1006500005C0662371F096E8862F70E060E02AF00E
:100660009A95660F771F881FDAF7880F96958795FA
:1006700097F9089597F99F6780E870E060E0089522
:100680009FEF80EC089500240A94161617061806AA
:100690000906089500240A94121613061406050686
:1006A0000895092E0394000C11F4882352F0BB0F17
:1006B00040F4BF2B11F460FF04C06F5F7F4F8F4F7A
:1006C0009F4F089557FD9058440F551F59F05F3FB5
:1006D00071F04795880F97FB991F61F09F3F79F064
:1006E00087950895121613061406551FF2CF4695E6
:1006F000F1DF08C0161617061806991FF1CF869568
:100700007105610508940895E894BB27662777274B
:10071000CB0197F908950BD0C4CFB5DF28F0BADF2D
:1007200018F0952309F0A6CFABCF1124EECFCADF86
:10073000A0F3959FD1F3950F50E0551F629FF001F4
:10074000729FBB27F00DB11D639FAA27F00DB11D4D
:10075000AA1F649F6627B00DA11D661F829F2227D6
:10076000B00DA11D621F739FB00DA11D621F839F5D
:10077000A00D611D221F749F3327A00D611D231F33
:10078000849F600D211D822F762F6A2F11249F5781
:1007900050408AF0E1F088234AF0EE0FFF1FBB1FA4
:1007A000661F771F881F91505040A9F79E3F510543
:1007B00070F060CFAACF5F3FECF3983EDCF38695F4
:1007C00077956795B795F795E7959F5FC1F7FE2BEE
:1007D000880F911D9695879597F90895FB019F01C4
:1007E000E8944230C4F04532B4F44A3029F497FB1F
:1007F0001EF4909581959F4F642F77270E941F04C8
:10080000805D8A330CF0895D8193CB010097A1F75D
:1008100016F45DE251931082C9010C940F04DC01BF
:10082000FC01672F71917723E1F7329704C07C9127
:100830006D9370836291AE17BF07C8F30895AA1B2A
:10084000BB1B51E107C0AA1FBB1FA617B70710F0BB
:10085000A61BB70B881F991F5A95A9F780959095ED
:0A086000BC01CD010895F894FFCF0C
:06086A002F0000401454B1
:00000001FF
