:100000000C942A000C9434000C9434000C943400AA
:100010000C9434000C9434000C9434000C94340090
:100020000C9434000C9434000C9434000C94340080
:100030000C9434000C9434000C9434000C94340070
:100040000C9434000C9434000C9434000C94340060
:100050000C94340011241FBECFE5D4E0DEBFCDBF29
:100060000E947D000C9484000C94000083E389B905
:1000700010BC86E880BD80E18AB908955F9BFECF01
:100080008CB108950F931F930E943E00082F0E9489
:100090003E00182F0E943E0090E0202F30E0210FFC
:1000A000311D8217930709F50434F9F4113111F465
:1000B000D89A1BC0133311F4D89817C0123211F418
:1000C000D99A13C0153511F4D9980FC0163611F40A
:1000D000DB9A0BC0183811F4DB9807C0173711F4FE
:1000E000DD9A03C0193909F4DD981F910F91089525
:1000F000D09AD19AD39AD49A08950E9478000E94F7
:0C01000036000E944200FDCFF894FFCFB3
:00000001FF
