:100000000C942A000C9447000C9447000C94470071
:100010000C9447000C9447000C9447000C94470044
:100020000C9447000C9447000C9447000C94470034
:100030000C9447000C9447000C9447000C94470024
:100040000C9447000C9447000C9447000C94470014
:100050000C94470011241FBECFE5D4E0DEBFCDBF16
:1000600010E0A0E6B0E0EAE2F4E002C005900D92F4
:10007000A438B107D9F710E0A4E8B0E001C01D92A0
:10008000A638B107E1F70E94E8010C9413020C9422
:10009000000083E389B910BC86E880BD80E18AB99D
:1000A00008955F9BFECF8CB10895969A0895969817
:1000B0000895969A8FE39DE0A3E081509040A04080
:1000C000E1F700C0000096980895D09AD19AD29A8C
:1000D000D39A8C9A8E9A0E9459000895959A00009E
:1000E000000082B3807C82BB089517BA979A82B3CE
:1000F000887F82BBC79B04C00E946E00C799FCCF5B
:100100008FEF87BB08951F93182F0E94750018BBAF
:1001100082B38B7782BB0E946E0018BA1F9108953C
:1001200081E00E94830083EF91E00197F1F700C026
:10013000000008958058E62FF0E0E058FF4F9081CE
:10014000890F0E94830008951F93182F0E94750045
:1001500018BB9798929A0E946E0018BA1F91089542
:10016000CF93DF93EC018881882331F021960E94A0
:10017000A40089918823D9F7DF91CF910895EF9258
:10018000FF920F931F93CF93DF930E945100082F8C
:100190000E945100182F0E945100E02EFF24C12F11
:1001A000D0E090E09E012E0D3F1D8217930709F0CD
:1001B00008C1043409F0EFC01131C9F4D89A0E9483
:1001C000900080E690E00E94B00084E490E00E94FD
:1001D000B0008FEF9FEF61E070E00E949A008BE625
:1001E00090E00E94B000CE010E94B000EAC013333C
:1001F000C9F4D8980E94900080E690E00E94B00078
:1002000084E490E00E94B0008FEF9FEF61E070E027
:100210000E949A008BE690E00E94B000CE010E94FE
:10022000B000CFC01232C9F4D99A0E94900080E683
:1002300090E00E94B00084E490E00E94B0008FEF54
:100240009FEF61E070E00E949A008BE690E00E94D0
:10025000B000CE010E94B000B4C01535C9F4D998E1
:100260000E94900080E690E00E94B00084E490E05C
:100270000E94B0008FEF9FEF61E070E00E949A0053
:100280008BE690E00E94B000CE010E94B00099C0C1
:100290001636C9F4DA9A0E94900080E690E00E9437
:1002A000B00084E490E00E94B0008FEF9FEF61E027
:1002B00070E00E949A008BE690E00E94B000CE01B0
:1002C0000E94B0007EC01838C9F4DA980E949000ED
:1002D00080E690E00E94B00084E490E00E94B000CC
:1002E0008FEF9FEF61E070E00E949A008BE690E054
:1002F0000E94B000CE010E94B00063C01737C9F45D
:10030000DB9A0E94900080E690E00E94B00084E4B6
:1003100090E00E94B0008FEF9FEF61E070E00E94DC
:100320009A008BE690E00E94B000CE010E94B000DF
:1003300048C01939C9F4DB980E94900080E690E02B
:100340000E94B00084E490E00E94B0008FEF9FEF25
:1003500061E070E00E949A008BE690E00E94B0009D
:10036000CE010E94B0002DC00E94900080E690E077
:100370000E94B000C7010E94B0008FEF9FEF61E0C4
:1003800070E00E949A008BE690E00E94B000CE01DF
:100390000E94B00016C00E94900080E690E00E948B
:1003A000B000C7010E94B0008FEF9FEF61E070E0E6
:1003B0000E949A008BE690E00E94B000CE010E945D
:1003C000B000DF91CF911F910F91FF90EF900895B2
:1003D00081B3846A81BB85EA9EE00197F1F700C092
:1003E000000081E00E94830083EF91E00197F1F724
:1003F00000C0000088E30E94830090E19A95F1F725
:1004000000C08EE00E94830080E18A95F1F700C071
:100410000E9465000E94490084E790E00E94B000BD
:0A0420000E94BF00FDCFF894FFCF4B
:10042A0061646472657373203A20002064617461A8
:10043A00203A200057656C636F6D65202E2E2E00C2
:04044A000040145406
:00000001FF
