:100000000C942A000C9434000C9434000C943400AA
:100010000C9434000C9434000C9434000C94340090
:100020000C9434000C9434000C9434000C94340080
:100030000C9434000C9434000C9434000C94340070
:100040000C9434000C9434000C9434000C94340060
:100050000C94340011241FBECFE5D4E0DEBFCDBF29
:100060000E9436000C944C000C940000B89AB99A87
:10007000C09AC19821E092E088B3822788BB88B3F8
:10008000892788BB4FE35DE063E04150504060400A
:0C009000E1F700C00000F0CFF894FFCFB3
:00000001FF
