:100000000C942A000C9434000C9434000C943400AA
:100010000C9434000C9434000C9434000C94340090
:100020000C9434000C9434000C9434000C94340080
:100030000C9434000C9434000C9434000C94340070
:100040000C9434000C9434000C9434000C94340060
:100050000C94340011241FBECFE5D4E0DEBFCDBF29
:100060000E945F000C9489000C94000081B38066AC
:1000700081BB83B7806483BF83B7806283BF83B74C
:10008000846083BF8B9A85B5806485BD85B58062A9
:1000900085BD85B5866085BD089583B7896683BFB4
:1000A000BB9A08958CBF282F392F39BD28BD3BBD81
:1000B0002ABD0895282F392F39BD28BD0895EF9204
:1000C000FF920F931F93CF93DF930E944D00C0E0E8
:1000D000D0E00FEF10E0EE24FF240AC0CE010E9412
:1000E000520081EE94E00197F1F700C000002196E4
:1000F000CF3FD1059CF3E801CE010E94520081EE72
:1001000094E00197F1F700C000002197A9F7E701FB
:06011000EFCFF894FFCFD1
:00000001FF
