:100000000C942A000C9447000C9447000C94470071
:100010000C9447000C9447000C9447000C94470044
:100020000C9447000C9447000C9447000C94470034
:100030000C9447000C9447000C9447000C94470024
:100040000C9447000C9447000C9447000C94470014
:100050000C94470011241FBECFE5D4E0DEBFCDBF16
:1000600010E0A0E6B0E0ECEEF1E002C005900D92E9
:10007000A236B107D9F710E0A2E6B0E001C01D92A8
:10008000A436B107E1F70E94ED000C94F4000C9443
:100090000000969A0895969808958CBF089580E878
:1000A0009CE00197F1F7089583E389B910BC86E8D5
:1000B00080BD80E18AB908955F9BFECF8CB1089521
:1000C0000F931F930E945C00082F0E945C00182F62
:1000D0000E945C0090E0202F30E0210F311D82173C
:1000E000930709F044C0043409F055C0113129F4D4
:1000F000A99A929A0E9449004EC0133329F4A998F4
:1001000092980E944B0047C0123229F4979A949A11
:100110000E94490040C0153529F4979894980E9490
:100120004B0039C0163629F4A99A949A0E944900C6
:1001300032C0183829F4A99894980E944B002BC01B
:10014000173729F4929A979A0E94490024C01939C6
:1001500029F4929897980E944B001DC0969A83ECC0
:1001600099E00197F1F700C00000969814C08091C3
:100170006200909163000196909363008093620007
:10018000893C910544F0A998AF98DA98AC98109200
:100190006300109262001F910F910895969A8FE963
:1001A00096E8A1E081509040A040E1F700C0000037
:1001B00096980895A19A8F9A8A9A8C9A8E9ABB9A49
:1001C0000E94CE00089583B7896683BF8091600046
:1001D000909161000E944D0008950E94DA000E94F3
:0C01E00054000E946000FDCFF894FFCF97
:0201EC00FF0012
:00000001FF
