:100000000C942A000C943C000C943C000C943C0092
:100010000C943C000C943C000C943C000C943C0070
:100020000C943C000C943C000C943C000C943C0060
:100030000C943C000C943C000C943C000C943C0050
:100040000C943C000C943C000C943C000C943C0040
:100050000C943C0011241FBECFE5D4E0DEBFCDBF21
:1000600010E0A0E6B0E001C01D92A236B107E1F7B2
:100070000E9467000C9471000C940000999914C0C0
:10008000809160009091610023E0883E92073CF0EF
:1000900084EF91E090936100809360000DC0019621
:1000A0009093610080936000809160009091610066
:1000B00021E08039920754F0999B08C095B381E004
:1000C000892785BB10926100109260000895A09A64
:1000D000A198A99A95B381E0892785BB0E943E002B
:0600E000FDCFF894FFCFF4
:00000001FF
