:100000000C942A000C9447000C9447000C94470071
:100010000C9447000C9447000C9447000C94470044
:100020000C9447000C9447000C9447000C94470034
:100030000C9447000C9447000C9447000C94470024
:100040000C9447000C9447000C9447000C94470014
:100050000C94470011241FBECFE5D8E0DEBFCDBF12
:1000600010E0A0E6B0E0E4E5FAE002C005900D92F1
:10007000A63BB107D9F710E0A6EBB0E001C01D9296
:10008000AC3BB107E1F70E9462020C9428050C9486
:100090000000882314F4AA9A01C0AA9886FF02C01F
:1000A000AB9A01C0AB9885FF02C0AC9A01C0AC9876
:1000B00084FF02C0AD9A01C0AD98AF98AE9AE3EF4D
:1000C000F1E03197F1F700C00000AE98E3EFF1E006
:1000D0003197F1F700C0000083FF02C0AA9A01C067
:1000E000AA9882FF02C0AB9A01C0AB9881FF02C000
:1000F000AC9A01C0AC9880FF02C0AD9A01C0AD9827
:10010000AF98AE9A83EF91E00197F1F700C000003D
:10011000AE98E3EFF1E03197F1F700C000000895E9
:10012000882314F4AA9A01C0AA9886FF02C0AB9A49
:1001300001C0AB9885FF02C0AC9A01C0AC9884FFA7
:1001400002C0AD9A01C0AD9895B3906C95BBE3EF3A
:10015000F1E03197F1F700C00000AE98E3EFF1E075
:100160003197F1F700C0000083FF02C0AA9A01C0D6
:10017000AA9882FF02C0AB9A01C0AB9881FF02C06F
:10018000AC9A01C0AC9880FF02C0AD9A01C0AD9896
:1001900085B3806C85BB83EF91E00197F1F700C0D8
:1001A0000000AE98E3EFF1E03197F1F700C00000F6
:1001B000089581E00E94490080E80E944900089566
:1001C00084B3806C84BB84B38C6384BB83EF91E085
:1001D0000197F1F700C0000081E00E94490082E031
:1001E0000E94490088E20E94490086E00E9449007E
:1001F0008CE00E94490080E80E9449000895CF9356
:10020000DF93EC018881882361F021960E949000A1
:1002100083EF91E00197F1F700C0000089918823F6
:10022000A9F7DF91CF9108950F931F93CF93DF9399
:100230008C016130710591F06230710524F4611513
:10024000710541F016C06230710561F063307105CF
:1002500081F40CC080E80E9449000BC080EC0E9431
:10026000490007C084E90E94490003C084ED0E9450
:100270004900101611064CF4C0E0D0E084E10E9461
:1002800049002196C017D107CCF3DF91CF911F9180
:100290000F9108958F929F92AF92BF92CF92DF926B
:1002A000EF92FF920F931F93CF93DF936B01EA01BD
:1002B0004901BC0180E090E00E94F203F62EE72E97
:1002C000B82EA92ECC19DD09BE0180E090E00E9475
:1002D000F2039B01AC016F2D7E2D8B2D9A2D0E9478
:1002E0005E03E62EF72ED82EC92E08191909B8017B
:1002F00080E090E00E94F2032E2D3F2D4D2D5C2DCD
:100300000E9480040E94C603862F972FDF91CF9111
:100310001F910F91FF90EF90DF90CF90BF90AF9023
:100320009F908F90089583B7896683BF08958CBF8F
:10033000089580E487B987E886B9089597B18770F2
:10034000987F982B97B9369A3699FECF24B135B15C
:10035000822F932F0895A898A9980895A89AA998EC
:100360000895A898A99A0895979A08959798089536
:10037000949895980895949A959808959498959A34
:100380000895969A0895969808950E94BE010E9435
:10039000B10108950E94BB010E94AE0108950E9420
:1003A000BB010E94B10108950E94AE010E94BE01EE
:1003B00008950E94AB010E94B8010895FC01A0813C
:1003C000B18140E050E020E030E0619171916A1726
:1003D0007B0718F0242F352FDB014F5F5F4F47302D
:1003E000510599F7822F932F08958F929F92AF9284
:1003F000BF92CF92DF92EF92FF920F931F93DF9302
:10040000CF9300D000D0CDB7DEB74C016C0104E033
:1004100010E07E010894E11CF11C0F2EF0E6AF2ED7
:10042000F0E0BF2EF02DF601819191916F01B7019F
:100430004AE050E00E94E304C7010E94FF00C501AA
:100440000E94FF000150104071F780E090E061E0F1
:1004500070E00E941401CC24DD246894C3F8C80C19
:10046000D91C04E010E07E010894E11CF11C0F2E61
:10047000F0E6AF2EF0E0BF2EF02DF60181919191C4
:100480006F01B7014AE050E00E94E304C7010E94F7
:10049000FF00C5010E94FF000F5F1F4F08301105CC
:1004A00061F70F900F900F900F90CF91DF911F91F8
:1004B0000F91FF90EF90DF90CF90BF90AF909F9003
:1004C0008F900895EF92FF920F931F93DF93CF9336
:1004D000CDB7DEB72E970FB6F894DEBF0FBECDBFF7
:1004E000A09AA19A8F9A0E94AB01979A8C9A8D9AA2
:1004F0008E9A0E94B801969A80E884BF84BFFE015C
:1005000031968EE0DF011D928A95E9F70E949901EC
:100510000E94E0000E94D9007E010894E11CF11CB9
:1005200080E00E949E0160E070E04FEF53E020E029
:1005300030E004E813E00E944A019A83898381E055
:100540000E949E0160E070E04FEF53E020E030E059
:100550000E944A019C838B8382E00E949E0160E09E
:1005600070E04FEF53E020E030E00E944A019E83AC
:100570008D8383E00E949E0160E070E04FEF53E0C6
:1005800020E030E00E944A0198878F8384E00E9437
:100590009E0160E070E04FEF53E020E030E00E9409
:1005A0004A019A87898785E00E949E0160E070E099
:1005B0004FEF53E020E030E00E944A019C878B8798
:1005C00086E00E949E0160E070E04FEF53E020E083
:1005D00030E00E944A019E878D8787E00E949E013D
:1005E00060E070E04FEF53E020E030E00E944A010D
:1005F000988B8F87C7010E94DE018630910529F014
:10060000009719F08330910539F40E94CA0182E6FF
:1006100090E00E94FF002CC08230910531F08730BD
:10062000910519F08530910539F40E94C50182E7E2
:1006300090E00E94FF001CC08130910539F40E94B7
:10064000D40182E890E00E94FF0012C0843091053E
:1006500039F40E94CF0182E990E00E94FF0008C0B7
:10066000BFEF8F3F9B0721F482EA90E00E94FF00DA
:1006700083ED90E30197F1F700C0000080E090E087
:1006800060E070E00E9414018091B6009091B70084
:1006900001969093B7008093B600A3E0893E9A0735
:1006A0000CF43ECF28E088E190E00FB6F894A895CE
:1006B000809341000FBE20934100FFCF0CD0E6C0D5
:1006C000DED040F0D5D030F021F45F3F19F0C7C044
:1006D000511110C1CAC0EBD098F39923C9F3552327
:1006E000B1F3951B550BBB27AA2762177307840725
:1006F00038F09F5F5F4F220F331F441FAA1FA9F3DB
:1007000033D00E2E3AF0E0E830D091505040E695CC
:10071000001CCAF729D0FE2F27D0660F771F881F2D
:10072000BB1F261737074807AB07B0E809F0BB0B1C
:10073000802DBF01FF2793585F4F2AF09E3F510540
:1007400068F08DC0D7C05F3FECF3983EDCF3869530
:1007500077956795B795F7959F5FC9F7880F911DB6
:100760009695879597F90895E1E0660F771F881FA2
:10077000BB1F621773078407BA0720F0621B730B55
:10078000840BBA0BEE1F88F7E095089598D088F097
:100790009F5790F0B92F9927B751A0F0D1F0660F6D
:1007A000771F881F991F1AF0BA95C9F712C0B13088
:1007B00081F09FD0B1E008959CC0672F782F8827E3
:1007C000B85F39F0B93FCCF3869577956795B395C7
:1007D000D9F73EF490958095709561957F4F8F4F36
:1007E0009F4F0895E89409C097FB3EF4909580953B
:1007F000709561957F4F8F4F9F4F9923A9F0F92FE7
:1008000096E9BB279395F695879577956795B79564
:10081000F111F8CFFAF4BB0F11F460FF1BC06F5F4A
:100820007F4F8F4F9F4F16C0882311F096E911C05C
:10083000772321F09EE8872F762F05C0662371F07D
:1008400096E8862F70E060E02AF09A95660F771F91
:10085000881FDAF7880F9695879597F9089597F985
:100860009F6780E870E060E008959FEF80EC089556
:1008700000240A941616170618060906089500247F
:100880000A9412161306140605060895092E0394F9
:10089000000C11F4882352F0BB0F40F4BF2B11F46D
:1008A00060FF04C06F5F7F4F8F4F9F4F089557FDCC
:1008B0009058440F551F59F05F3F71F04795880FCE
:1008C00097FB991F61F09F3F79F087950895121665
:1008D00013061406551FF2CF4695F1DF08C0161611
:1008E00017061806991FF1CF8695710561050894C2
:1008F0000895E894BB2766277727CB0197F90895D9
:100900000BD0C4CFB5DF28F0BADF18F0952309F07B
:10091000A6CFABCF1124EECFCADFA0F3959FD1F3C2
:10092000950F50E0551F629FF001729FBB27F00D9D
:10093000B11D639FAA27F00DB11DAA1F649F6627F2
:10094000B00DA11D661F829F2227B00DA11D621F41
:10095000739FB00DA11D621F839FA00D611D221FFB
:10096000749F3327A00D611D231F849F600D211DDF
:10097000822F762F6A2F11249F5750408AF0E1F082
:1009800088234AF0EE0FFF1FBB1F661F771F881FCB
:1009900091505040A9F79E3F510570F060CFAACF0B
:1009A0005F3FECF3983EDCF3869577956795B795B6
:1009B000F795E7959F5FC1F7FE2B880F911D9695E0
:1009C000879597F90895FB019F01E8944230C4F0A0
:1009D0004532B4F44A3029F497FB1EF49095819582
:1009E0009F4F642F77270E941405805D8A330CF097
:1009F000895D8193CB010097A1F716F45DE25193D5
:100A00001082C9010C940405DC01FC01672F71916F
:100A10007723E1F7329704C07C916D9370836291E4
:100A2000AE17BF07C8F30895AA1BBB1B51E107C04F
:100A3000AA1FBB1FA617B70710F0A61BB70B881F6E
:100A4000991F5A95A9F780959095BC01CD010895FD
:040A5000F894FFCF48
:100A54002F00476F20546F204261636B20202020B9
:100A64002000476F20546F20466F727761726420B4
:100A740020005475726E204C65667420202020205E
:100A840020005475726E20526967687420202020FB
:100A940020005475726E204F66662020202020208E
:060AA40020000040145484
:00000001FF
