:1000000012C024C023C022C021C020C01FC01EC0F7
:100010001DC01CC01BC01AC019C018C017C016C014
:1000200015C014C013C011241FBECFE5D4E0DEBF3D
:10003000CDBF10E0A0E6B0E0EEE8F2E002C005902F
:100040000D92AC38B107D9F7F0D01FC1D9CF8823B2
:1000500014F4C79A01C0C79886FF02C0C69A01C0AF
:10006000C69885FF02C0C59A01C0C59884FF02C02A
:10007000C49A01C0C498C298C39AE3EFF1E03197E3
:10008000F1F700C00000C398E3EFF1E03197F1F71A
:1000900000C0000083FF02C0C79A01C0C79882FF5A
:1000A00002C0C69A01C0C69881FF02C0C59A01C0AD
:1000B000C59880FF02C0C49A01C0C498C298C39A70
:1000C00083EF91E00197F1F700C00000C398E3EFE0
:1000D000F1E03197F1F700C000000895882314F48F
:1000E000C79A01C0C79886FF02C0C69A01C0C698C9
:1000F00085FF02C0C59A01C0C59884FF02C0C49A9A
:1001000001C0C49898B39C6098BBE3EFF1E03197CD
:10011000F1F700C00000C398E3EFF1E03197F1F789
:1001200000C0000083FF02C0C79A01C0C79882FFC9
:1001300002C0C69A01C0C69881FF02C0C59A01C01C
:10014000C59880FF02C0C49A01C0C49888B38C606F
:1001500088BB83EF91E00197F1F700C00000C398DE
:10016000E3EFF1E03197F1F700C00000089587B3A5
:100170008C6087BB87B3806F87BB83EF91E001976B
:10018000F1F700C0000081E062DF82E060DF88E21A
:100190005EDF86E05CDF8CE05ADF80E858DF0895A0
:1001A000CF93DF93EC018881882359F0219696DF65
:1001B00083EF91E00197F1F700C000008991882357
:1001C000B1F7DF91CF9108950F931F93CF93DF93F2
:1001D0008C016130710589F06230710524F461157C
:1001E000710541F012C06230710551F06330710544
:1001F00061F409C080E82BDF08C080EC28DF05C06F
:1002000084E925DF02C084ED22DF1016110644F4D4
:10021000C0E0D0E084E11BDF2196C017D107D4F302
:10022000DF91CF911F910F910895EF92FF920F935D
:100230001F93CF93DF939BDFC0E6D0E00EE610E084
:100240000F2EF3E8EF2EF0E0FF2EF02D80E090E08F
:1002500060E070E0B9DFCE01A3DF80E090E062E013
:1002600070E0B2DFC8019CDF81E090E063E070E005
:10027000ABDFC70195DF8FE79AE1A6E081509040A0
:0E028000A040E1F700C00000E1CFF894FFCFEE
:10028E004369726375697473546F64617900346283
:10029E006974204C434420496E74657266616369CB
:0C02AE006E67005475746F7269616C001B
:00000001FF
