:100000000C942A000C9447000C9447000C94470071
:100010000C9447000C9447000C9447000C94470044
:100020000C9447000C9447000C9447000C94470034
:100030000C9447000C9447000C9447000C94470024
:100040000C9447000C9447000C9447000C94470014
:100050000C94470011241FBECFE5D4E0DEBFCDBF16
:1000600010E0A0E6B0E0EEEEF2E002C005900D92E6
:10007000A236B107D9F710E0A2E6B0E001C01D92A8
:10008000A336B107E1F70E940F010C9475010C949F
:10009000000087B3836087BBC098C19A0E94450166
:1000A000089580916200882339F4C1988FEF0E94EF
:1000B0007001C19A8074089580E008951F93162FEF
:1000C000C1988F7180620E947001812F0E9470011F
:1000D000C19A1F9108950F931F93CF93DF93EC0163
:1000E000C19881E60E947001CE01BE0140E10E94EC
:1000F0005001082F192FC19A87E060E40E945E002A
:10010000802F912FDF91CF911F910F9108958091B2
:100110006200882389F0C1988FEF0E947001C19A14
:10012000C09880E06BE40E945E00C09A109262006A
:1001300087E060E30E945E00089585E062E00E942F
:100140005E0081E160E10E945E001092620080E04A
:100150006BE40E945E00C09A08951F93CF93DF93D3
:10016000EB01142FC1988F710E947001CE01BE0166
:10017000412F0E945001C19ADF91CF911F910895A4
:100180001F93CF93DF93EB01142FC1988F7180627F
:100190000E947001CE01612F0E946301C19ADF911C
:1001A000CF911F910895BC0180E145E00E94C000FD
:1001B0000895BC01C0988AE045E00E94C000C09A42
:1001C00008951F93CF93DF93EC01162F8091620067
:1001D0008823E1F7C09881E08093620080E06AE4C0
:1001E0000E945E00C19881EE0E947001C19AC19880
:1001F00080EA0E947001CE01612F0E946301C19AC2
:10020000C09ADF91CF911F910895E82FF92FDF0158
:100210000D900020E9F7CD0101978E1B0895DF9224
:10022000EF92FF920F931F93DF93CF930F92CDB76F
:10023000DEB7D09ACE0101960E940501E82E8E010C
:100240000F5F1F4F80E690E0F82EDD24D3940E94CC
:10025000490083ED90E30197F1F700C000000E9490
:1002600087000E949D00C8016E2D70E00E94E10091
:100270000E9451000097E1F3C8010E946B00F8163C
:1002800031F78BB38D258BBBE2CF87B3837C87BBE4
:1002900087B38C6287BB81E58DB981E08EB9089503
:1002A000442371F0A82FB92FE62FF72F80E09D91FE
:1002B0009FB9779BFECF9FB191938F5F8417B8F35F
:1002C000862F972F0895662351F0E82FF92F80E0AD
:1002D00091919FB9779BFECF8F5F8617C8F30895E2
:0E02E0008FB9779BFECF8FB10895F894FFCFB2
:0202EE006100AD
:00000001FF
