:100000000C942A000C9447000C9447000C94470071
:100010000C9447000C9447000C9447000C94470044
:100020000C9447000C9447000C9447000C94470034
:100030000C9447000C9447000C9447000C94470024
:100040000C9447000C9447000C9447000C94470014
:100050000C94470011241FBECFE5D4E0DEBFCDBF16
:1000600010E0A0E6B0E0EEE8F3E002C005900D92EB
:10007000A83AB107D9F710E0A8EAB0E001C01D9294
:10008000AC3AB107E1F70E9495010C94C5010C94BC
:10009000000083B3803F09F480C083ED90E30197B3
:1000A000F1F700C0000083B394B3909594BB95B36F
:1000B000909595BB0000000093B3892B8E3B81F196
:1000C0008F3BA0F48E3771F18F3740F48B37D1F12D
:1000D0008D3781F1873709F060C03CC08B3B81F1DF
:1000E0008D3B31F1873B09F058C032C08E3D09F499
:1000F0004FC08F3D40F48B3D09F18D3DB9F0873DF8
:1001000009F04BC023C08B3EB9F08C3E20F4873EF3
:1001100009F043C019C08D3E39F08E3EF1F536C06E
:1001200023E037C024E035C025E033C026E031C0ED
:1001300027E02FC028E02DC029E02BC02AE029C0ED
:100140002BE027C02CE025C02DE023C02EE021C0ED
:100150002FE01FC020E11DC080E090E041E055B3DA
:10016000542755BBE7EAF1E63197F1F700C00000EC
:1001700055B3542755BBE7EAF1E63197F1F700C0D4
:10018000000001968217930754F3089521E001C0FF
:1001900022E030E012161306FCF20895959A000052
:1001A000000082B3807C82BB089517BA979A82B30D
:1001B000887F82BBC79B04C00E94CE00C799FCCF3A
:1001C0008FEF87BB08951F93182F0E94D50018BB8F
:1001D00082B38B7782BB0E94CE0018BA1F9108951C
:1001E0008058E62FF0E0ED55FF4F9081890F0E9477
:1001F000E30008951F93182F0E94D50018BB97980D
:10020000929A0E94CE0018BA1F910895CF93DF935F
:10021000EC018881882331F021960E94FA008991AF
:100220008823D9F7DF91CF910895CF93DF93809101
:10023000AA009091AB000097B9F4C0EFD0E080E045
:1002400090E060E070E0FE01099580E690E00E9499
:10025000060180E090E060E070E0FE01099582E731
:1002600090E00E94060119C081309105B1F4C0EF01
:10027000D0E080E090E060E070E0FE01099580E66B
:1002800090E00E94060180E090E060E070E0FE01F6
:10029000099583E890E00E940601DF91CF910895CF
:1002A000999914C08091A8009091A90023E0883EFC
:1002B00092073CF084EF91E09093A9008093A8000E
:1002C0000DC001969093A9008093A8008091A8008A
:1002D0009091A90021E08039920714F1999B20C0E8
:1002E00095B381E0892785BB8091AA009091AB00EE
:1002F000009749F481E090E09093AB008093AA00CE
:100300000E94150109C08130910531F41092AB00B3
:100310001092AA000E9415011092A9001092A80044
:10032000089581E00E94E30008958FE084BB80EF90
:1003300085BBA09AA198A99A81B3846A81BB85EAFA
:100340009EE00197F1F700C0000081E00E94E30009
:1003500083EF91E00197F1F700C0000088E30E946D
:10036000E30090E19A95F1F700C08FE00E94E3006E
:1003700080E18A95F1F700C083E990E00E940601D0
:0E0380000E9449000E945001FBCFF894FFCF6D
:10038E00202020202020202020202020202020205F
:10039E0020004C616D70205475726E6564204F465E
:1003AE004621004C616D70205475726E6564204F4D
:1003BE004E210057656C636F6D6520746F2041563A
:0803CE0052210000401454000C
:00000001FF
