:100000000C942A000C943C000C943C000C943C0092
:100010000C943C000C943C000C943C000C943C0070
:100020000C943C000C943C000C943C000C943C0060
:100030000C943C000C943C000C943C000C943C0050
:100040000C943C000C943C000C943C000C943C0040
:100050000C943C0011241FBECFE5D4E0DEBFCDBF21
:1000600010E0A0E6B0E001C01D92A23EB107E1F7AA
:100070000E9461000C949B000C9400008091600031
:1000800090916100891731F0E2E6F0E0E80FF11D90
:100090008081089580E008959091600080916100D2
:1000A000981769F0E2E6F0E0E90FF11D80819F5FAB
:1000B00090936000992324F410926000089580E0EA
:1000C00008951F9310BC85E089B980E98AB986E05C
:1000D00080BDB89A789411E00E944C00813321F4DD
:1000E00088B3812788BBF8CF8033B1F788B38127E5
:1000F00088BBF2CF1F920F920FB60F9211248F93ED
:100100009F93EF93FF93809161009CB1E2E6F0E052
:10011000E80FF11D90838F5F80936100882314F4B2
:1001200010926100FF91EF919F918F910F900FBE00
:0A0130000F901F901895F894FFCF70
:00000001FF
