:100000000C942A000C943C000C943C000C943C0092
:100010000C943C000C943C000C943C000C943C0070
:100020000C943C000C943C000C943C000C943C0060
:100030000C943C000C943C000C943C000C943C0050
:100040000C943C000C943C000C943C000C943C0040
:100050000C943C0011241FBECFE5D4E0DEBFCDBF21
:1000600010E0A0E6B0E001C01D92A436B107E1F7B0
:100070000E9437010C943D010C94000098B382E07B
:10008000892788BB089598B381E0892788BB0895A4
:1000900098B380E2892788BB089598B380E48927C4
:1000A00088BB089588B3805888BB089598B384E0CE
:1000B000892788BB089598B388E0892788BB08956D
:1000C000989914C0809160009091610023E0883E6F
:1000D00092073CF084EF91E0909361008093600080
:1000E0000EC0019690936100809360008091600043
:1000F0009091610021E0803992070CF4B7C0989B81
:10010000B5C018BA80916200909163008430910567
:1001100009F455C0853091058CF481309105A1F129
:10012000823091051CF4009711F18CC0823091054A
:1001300081F18330910509F085C036C08730910583
:1001400009F45EC0883091054CF48530910509F4BE
:100150003FC08630910509F075C045C088309105D3
:1001600009F455C08930910509F06CC05FC00E9448
:100170003E000E9443000E9448000E944D000E94E1
:1001800052000E9456005EC00E9443000E94480038
:1001900059C00E943E000E9443000E945B000E94E2
:1001A0004D000E9452004EC00E943E000E9443003B
:1001B0000E945B000E9448000E944D0043C00E94C4
:1001C00056000E945B000E9443000E9448003AC013
:1001D0000E943E000E9456000E945B000E94480060
:1001E0000E944D002FC00E945B000E9448000E94A8
:1001F0004D000E9452000E9456000E943E0022C004
:100200000E943E000E9443000E9448001BC00E94C2
:100210003E000E9443000E9448000E944D000E9440
:1002200052000E9456000E945B000CC00E943E00DB
:100230000E9443000E9448000E944D000E94560008
:100240000E945B0010926100109260008091620039
:1002500090916300019690936300809362008A30CE
:10026000910524F010926300109262000895A19A03
:0E027000A098A89A0E946000FDCFF894FFCFDE
:00000001FF
