:100000000C942A000C9434000C9434000C943400AA
:100010000C9434000C9434000C9434000C94340090
:100020000C9434000C9434000C9434000C94420072
:100030000C9434000C9434000C9434000C94340070
:100040000C9434000C9434000C9434000C94340060
:100050000C94340011241FBECFE5D4E0DEBFCDBF29
:100060000E948F000C9494000C94000083E389B9E3
:1000700010BC86E880BD80E98AB908955F9BFECFF9
:100080008CB108951F920F920FB60F9211240F9307
:100090001F932F933F934F935F936F937F938F9310
:1000A0009F93AF93BF93EF93FF930E943E00182F4F
:1000B0000E943E00082F0E943E0090E0212F30E079
:1000C000200F311D8217930791F4143481F401310C
:1000D00011F4A8980CC0023211F4A89A08C0A89A8A
:1000E00083EC99E00197F1F700C00000A898FF9118
:1000F000EF91BF91AF919F918F917F916F915F91A0
:100100004F913F912F911F910F910F900FBE0F9024
:100110001F901895A89A81E084BB789408950E9456
:0C0120008A000E943600FFCFF894FFCF49
:00000001FF
