:100000000C942A000C9447000C9447000C94470071
:100010000C9447000C9447000C9447000C94470044
:100020000C9447000C9447000C9447000C94470034
:100030000C9447000C9447000C9447000C94470024
:100040000C9447000C9447000C9447000C94470014
:100050000C94470011241FBECFE5D4E0DEBFCDBF16
:1000600010E0A0E6B0E0EEEEF4E002C005900D92E4
:10007000A436B107D9F710E0A4E6B0E001C01D92A4
:10008000AC36B107E1F70E9425020C9475020C947E
:100090000000D79AD69AD59AD49AD39AD29AD19A5E
:1000A000D09AB89AB99ABA9ABB9ABC9ABD9ABE9A93
:1000B000BF9AC09AC19AC29AC39AC49AC59AC69A5C
:1000C000C79A08959BB321E030E002C0220F331F8E
:1000D0008A95E2F7922B9BBBC09887EA91E601973D
:1000E000F1F700C00000C09AC19887EA91E6019735
:1000F000F1F700C00000C19AC29887EA91E6019723
:10010000F1F700C00000C29AC39887EA91E6019710
:10011000F1F700C00000C39AC49887EA91E60197FE
:10012000F1F700C00000C49AC59887EA91E60197EC
:10013000F1F700C00000C59AC69887EA91E60197DA
:10014000F1F700C00000C69AC79887EA91E60197C8
:10015000F1F700C00000C79A8BB3209528232BBB72
:10016000089598B321E030E002C0220F331F8A9532
:10017000E2F7822F8095982398BBDF9A87EA91E671
:100180000197F1F700C00000DF98DE9A87EA91E658
:100190000197F1F700C00000DE98DD9A87EA91E64A
:1001A0000197F1F700C00000DD98DC9A87EA91E63C
:1001B0000197F1F700C00000DC98DB9A87EA91E62E
:1001C0000197F1F700C00000DB98DA9A87EA91E620
:1001D0000197F1F700C00000DA98D99A87EA91E612
:1001E0000197F1F700C00000D998D89A87EA91E604
:1001F0000197F1F700C00000D89888B3282B28BBDE
:100200000895DF98DE98DD98DC98DB98DA98D99825
:10021000D8980895C09AC19AC29AC39AC49AC59AA6
:10022000C69AC79A0895DF98DE98DD98DC98DB9827
:10023000DA98D998D898C09AC19AC29AC39AC49A9F
:10024000C59AC69AC79A0895989914C08091640077
:100250009091650023E0883E92073CF084EF91E0A6
:1002600090936500809364000DC0019690936500A3
:1002700080936400809164009091650021E0803952
:100280009207A4F0989B12C0809162009091630045
:10029000823091052CF00197909363008093620067
:1002A0000E941302109265001092640008958799CD
:1002B00014C0809166009091670023E0883E920709
:1002C0003CF084EF91E090936700809366000DC04E
:1002D00001969093670080936600809166009091EC
:1002E000670021E080399207A4F0879B12C08091BB
:1002F000620090916300883091052CF401969093F0
:100300006300809362000E941302109267001092B3
:1003100066000895859914C08091680090916900E5
:1003200023E0883E92073CF084EF91E090936900CF
:10033000809368000DC001969093690080936800D7
:10034000809168009091690021E080399207A4F0C3
:10035000859B12C080916000909161008230910570
:100360002CF0019790936100809360000E9413022B
:1003700010926900109268000895869914C08091C7
:100380006A0090916B0023E0883E92073CF084EF76
:1003900091E090936B0080936A000DC0019690935A
:1003A0006B0080936A0080916A0090916B0021E05D
:1003B00080399207A4F0869B12C0809160009091D2
:1003C0006100883091052CF4019690936100809330
:1003D00060000E94130210926B0010926A00089550
:1003E0001F93182F0E9401014BB321E030E0C90197
:1003F00002C0880F991F1A95E2F7842B8BBB1F91BF
:1004000008951F93182F0E940A0148B321E030E09D
:10041000C90102C0880F991F1A95E2F780958423BD
:1004200088BB1F910895CF93DF93C0916200D09154
:10043000630021978091600081500E94F0018C2F11
:100440000E940102DF91CF9108950E94490087E048
:100450000E94620086E00E94620085E00E946200C5
:1004600084E00E94620083E00E94620082E00E94B9
:10047000620081E00E94620080E00E9462008FE3DF
:100480009DE0A3E081509040A040E1F700C0000053
:100490000E94130180E00E94B10081E00E94B1003F
:1004A00082E00E94B10083E00E94B10084E00E94DB
:1004B000B10085E00E94B10086E00E94B10087E0B3
:1004C0000E94B100A0988F988D988E98A89A979ABC
:1004D000959A969A0E9424010E9457010E948A01CF
:0E04E0000E94BD010E941302F5CFF894FFCFD9
:0404EE000400040002
:00000001FF
