:100000000C942A000C9434000C9434000C943400AA
:100010000C9434000C9434000C9434000C94340090
:100020000C9434000C9434000C9434000C94340080
:100030000C9434000C9434000C9434000C94340070
:100040000C9434000C9434000C9434000C94340060
:100050000C94340011241FBECFE5D4E0DEBFCDBF29
:100060000E94A0000C94AA000C94000085E089B9BD
:1000700010BC86E880BD80E18AB908955F9BFECF01
:100080008CB10895A898AA98A998979808950F9365
:100090001F930E943E00082F0E943E00182F0E94CE
:1000A0003E0090E0202F30E0210F311D8217930792
:1000B000C9F50434B9F5113031F4D89AA898AA9842
:1000C000A99A979A2FC0133021F4D8980E94420021
:1000D00029C0123031F4D99AA89AAA9AA998979867
:1000E00021C0153021F4D9980E9442001BC016305F
:1000F00031F4DB9AA898AA9AA998979A13C0183055
:1001000021F4DB980E9442000DC0173031F4DD9AD3
:10011000A89AAA98A99A979805C0193019F4DD9859
:100120000E9442001F910F910895D09AD19AD39ABC
:10013000D59AA29AA19AA09A8F9A0E9442000895F5
:1001400080E884BF84BF0E9495000E9436000E9410
:080150004700FDCFF894FFCF3A
:00000001FF
