:100000000C942A000C9434000C9434000C943400AA
:100010000C9434000C9434000C9434000C94340090
:100020000C9434000C9434000C9434000C94340080
:100030000C9434000C9434000C9434000C94340070
:100040000C9434000C9434000C9434000C94340060
:100050000C94340011241FBECFE5D4E0DEBFCDBF29
:100060000E944D000C9451000C94000098B381E064
:10007000982798BB2FE33DE043E0215030404040BB
:10008000E1F700C0000098B3892788BB87EA91E6B2
:100090000197F1F700C000000895B89A0E94360059
:0600A000FDCFF894FFCF34
:00000001FF
