:100000000C942A000C943F000C943F000C943F0089
:100010000C943F000C943F000C943F000C943F0064
:100020000C943F000C943F000C943F000C943F0054
:100030000C943F000C943F000C943F000C943F0044
:100040000C943F000C943F000C943F000C943F0034
:100050000C943F0011241FBECFE5D4E0DEBFCDBF1E
:1000600010E0A0E6B0E0E8E3F7E002C005900D92F2
:10007000A636B107D9F70E94F3000C949A030C94AA
:100080000000959A0000000082B3807C82BB089536
:1000900017BA979A82B3887F82BBC79B04C00E941D
:1000A0004100C799FCCF8FEF87BB08951F93182F8E
:1000B0000E94480018BB82B38B7782BB0E9441002C
:1000C00018BA1F9108951F93182F0E94480018BB5B
:1000D0009798929A0E94410018BA1F910895CF9361
:1000E000DF93EC018881882331F021960E94630020
:1000F00089918823D9F7DF91CF9108958158E62F10
:10010000F0E0EF59FF4F9081890F0E94560008954B
:100110008F929F92AF92BF92CF92DF92EF92FF9217
:100120000F931F93CF93DF936B01EA014901BC0149
:1001300080E090E00E946402F62EE72EB82EA92EF1
:10014000CC19DD09BE0180E090E00E9464029B01B1
:10015000AC016F2D7E2D8B2D9A2D0E94D001E62EA5
:10016000F72ED82EC92E08191909B80180E090E0A1
:100170000E9464022E2D3F2D4D2D5C2D0E94F20217
:100180000E943802862F972FDF91CF911F910F91F8
:10019000FF90EF90DF90CF90BF90AF909F908F90A7
:1001A000089583B7896683BF08958CBF089580E45E
:1001B00087B987E886B9089597B18770987F982B9B
:1001C00097B9369A3699FECF24B135B1822F932F45
:1001D000089581E00E94560083EF91E00197F1F7C6
:1001E00000C0000008952F923F924F925F926F924D
:1001F0007F928F929F92AF92BF92CF92DF92EF92B7
:10020000FF920F931F93DF93CF9300D000D0CDB711
:10021000DEB70E94D70081B3846A81BB85EA9EE085
:100220000197F1F700C0000081E00E94560083EFC3
:1002300091E00197F1F700C0000088E30E945600AA
:1002400090E19A95F1F700C08EE00E94560080E19F
:100250008A95F1F700C083ED90E30197F1F700C0B4
:10026000000044245524222433247E010894E11CF8
:10027000F11C0F2EF0E68F2EF0E09F2EF02D80E087
:100280000E94DC006C0160E070E04FEF53E020E082
:1002900030E00FEF10E00E9488003C0181E00E94F6
:1002A000DC005C0160E070E04FEF53E020E030E004
:1002B0000E9488008C01C214D30489F10E94E900D5
:1002C000C601B7014AE050E00E945503C7010E94F1
:1002D0006F00C4010E946F00C501B7014AE050E001
:1002E0000E945503C7010E946F0080E460E00E94F5
:1002F0007E00C301B7014AE050E00E945503C701E8
:100300000E946F00C4010E946F00C801B7014AE05B
:1003100050E00E945503C7010E946F001601A4140B
:10032000B50489F10E94E900C601B7014AE050E036
:100330000E945503C7010E946F00C4010E946F0014
:10034000C501B7014AE050E00E945503C7010E9471
:100350006F0080E460E00E947E00C301B7014AE0C4
:1003600050E00E945503C7010E946F00C4010E9423
:100370006F00C801B7014AE050E00E945503C70171
:100380000E946F00250187EA91E60197F1F700C00E
:10039000000083ED90E30197F1F700C000006FCFFC
:1003A0000CD0E6C0DED040F0D5D030F021F45F3F75
:1003B00019F0C7C0511110C1CAC0EBD098F39923EE
:1003C000C9F35523B1F3951B550BBB27AA27621719
:1003D0007307840738F09F5F5F4F220F331F441F5E
:1003E000AA1FA9F333D00E2E3AF0E0E830D0915096
:1003F0005040E695001CCAF729D0FE2F27D0660F83
:10040000771F881FBB1F261737074807AB07B0E8C1
:1004100009F0BB0B802DBF01FF2793585F4F2AF0D7
:100420009E3F510568F08DC0D7C05F3FECF3983E0A
:10043000DCF3869577956795B795F7959F5FC9F734
:10044000880F911D9695879597F90895E1E0660FBD
:10045000771F881FBB1F621773078407BA0720F036
:10046000621B730B840BBA0BEE1F88F7E09508959F
:1004700098D088F09F5790F0B92F9927B751A0F0E6
:10048000D1F0660F771F881F991F1AF0BA95C9F728
:1004900012C0B13081F09FD0B1E008959CC0672FA9
:1004A000782F8827B85F39F0B93FCCF386957795D8
:1004B0006795B395D9F73EF49095809570956195C1
:1004C0007F4F8F4F9F4F0895E89409C097FB3EF4EC
:1004D00090958095709561957F4F8F4F9F4F992391
:1004E000A9F0F92F96E9BB279395F695879577950F
:1004F0006795B795F111F8CFFAF4BB0F11F460FFCF
:100500001BC06F5F7F4F8F4F9F4F16C0882311F026
:1005100096E911C0772321F09EE8872F762F05C03A
:10052000662371F096E8862F70E060E02AF09A95D5
:10053000660F771F881FDAF7880F9695879597F9CA
:10054000089597F99F6780E870E060E008959FEF55
:1005500080EC089500240A9416161706180609065A
:10056000089500240A941216130614060506089529
:10057000092E0394000C11F4882352F0BB0F40F4B1
:10058000BF2B11F460FF04C06F5F7F4F8F4F9F4FF1
:10059000089557FD9058440F551F59F05F3F71F073
:1005A0004795880F97FB991F61F09F3F79F08795DA
:1005B0000895121613061406551FF2CF4695F1DF63
:1005C00008C0161617061806991FF1CF86957105F3
:1005D000610508940895E894BB2766277727CB0127
:1005E00097F908950BD0C4CFB5DF28F0BADF18F023
:1005F000952309F0A6CFABCF1124EECFCADFA0F32D
:10060000959FD1F3950F50E0551F629FF001729FA7
:10061000BB27F00DB11D639FAA27F00DB11DAA1FC6
:10062000649F6627B00DA11D661F829F2227B00D13
:10063000A11D621F739FB00DA11D621F839FA00D9E
:10064000611D221F749F3327A00D611D231F849FEE
:10065000600D211D822F762F6A2F11249F57504045
:100660008AF0E1F088234AF0EE0FFF1FBB1F661FE0
:10067000771F881F91505040A9F79E3F510570F099
:1006800060CFAACF5F3FECF3983EDCF38695779579
:100690006795B795F795E7959F5FC1F7FE2B880F94
:1006A000911D9695879597F90895FB019F01E89410
:1006B0004230C4F04532B4F44A3029F497FB1EF4BA
:1006C000909581959F4F642F77270E948603805DC8
:1006D0008A330CF0895D8193CB010097A1F716F462
:1006E0005DE251931082C9010C947603DC01FC0198
:1006F000672F71917723E1F7329704C07C916D9356
:1007000070836291AE17BF07C8F30895AA1BBB1B85
:1007100051E107C0AA1FBB1FA617B70710F0A61B01
:10072000B70B881F991F5A95A9F780959095BC0122
:08073000CD010895F894FFCFFC
:060738002F0000401454E4
:00000001FF
